:100000000C9498000C94B0030C9489030C94C000D9
:100010000C94C0000C94C0000C94C0000C94C00060
:100020000C94C0000C94C0000C94C0000C94C00050
:100030000C94C0000C94C0000C94C0000C94C00040
:100040000C943F030C94C0000C94C0000C94C000AE
:100050000C94C0000C94C0000C94C0000C94C00020
:100060000C94C0000C94C0005E01011F0103030149
:10007000008A02010A010202010064001E47040B0B
:100080000906007C0101060103030100F401060ECC
:100090000102020100C201170101020201019600E2
:1000A000023E0106060100C800038207100310008B
:1000B000C800820710071003016D0112010301013E
:1000C00003010E012401010202010140012401018A
:1000D0000202010100000000240027002A000000A5
:1000E0000000250028002B0000000000230026004F
:1000F00029000404040404040404020202020202AB
:1001000003030303030301020408102040800102DB
:10011000040810200102040810200000000800025A
:100120000100000304070000000000000000780543
:1001300011241FBECFEFD8E0DEBFCDBF11E0A0E09D
:10014000B1E0EEEBFBE002C005900D92A630B107E6
:10015000D9F721E0A6E0B1E001C01D92A13CB207B1
:10016000E1F710E0C8E9D0E004C02197FE010E9449
:10017000D705C739D107C9F70E94D7030C94DD050D
:100180000C9400000895833081F028F4813099F0B8
:100190008230A9F008958730A9F08830C9F0843002
:1001A000B1F4809180008F7D03C0809180008F77B3
:1001B00080938000089584B58F7784BD089584B5B9
:1001C0008F7DFBCF8091B0008F778093B000089532
:1001D0008091B0008F7DF9CFCF93DF93282F30E04F
:1001E000F901E65EFE4F8491F901EA5FFE4FD4917A
:1001F000F901EE50FF4FC491CC23A1F081110E9470
:10020000C300EC2FF0E0EE0FFF1FE851FF4FA59168
:10021000B491EC91ED2381E090E009F480E0DF916E
:10022000CF91089580E090E0FACF1F93CF93DF93B2
:10023000282F30E0F901E65EFE4F8491F901EA5F74
:10024000FE4FD491F901EE50FF4FC491CC23A9F099
:10025000162F81110E94C300EC2FF0E0EE0FFF1F5C
:10026000E252FF4FA591B4918FB7F894EC91111120
:1002700008C0D095DE23DC938FBFDF91CF911F9113
:100280000895DE2BF8CF1F93CF93DF93182FD92F2C
:100290008091C00160E0C1E0811102C061E0C0E076
:1002A0008091B4010E9415012091B8013091B901EB
:1002B000129FC001139F900D11248230910538F0D8
:1002C000880F991F880F991F05970197F1F76C2FD9
:1002D0008091B4010E9415012091B8013091B901BB
:1002E000D29FC001D39F900D11248230910538F028
:1002F000880F991F880F991F05970197F1F7DF91D4
:10030000CF911F910895CF93DF9390E0FC01EA5FB6
:10031000FE4F24918E509F4FFC0184918823D1F091
:1003200090E0880F991FFC01EC52FF4FA591B4910A
:10033000FC01E252FF4FC591D49161110EC09FB7ED
:10034000F8948C91E22FE0958E238C932881E22300
:10035000E8839FBFDF91CF9108958FB7F894EC9118
:10036000E22BEC938FBFF6CF3FB7F89480919D01BD
:1003700090919E01A0919F01B091A00126B5A89BEC
:1003800005C02F3F19F00196A11DB11D3FBFBA2F27
:10039000A92F982F8827BC01CD01620F711D811DE7
:1003A000911D42E0660F771F881F991F4A95D1F76C
:1003B00008952F923F924F925F926F927F928F9209
:1003C0009F92AF92BF92CF92DF92EF92FF920F93E4
:1003D0001F93CF93DF93CDB7DEB765970FB6F89431
:1003E000DEBF0FBECDBF0E94B4016B017C018091C6
:1003F0009401909195012601481A590A4DEC441632
:1004000040E1540608F4E0C080919201909193017C
:10041000009789F020910C0130910D011201221AF0
:10042000330A910137FE03C0319521953109283CEB
:1004300031050CF0C5C00196909393018093920111
:10044000029709F0BDC098E6692E90E0792E01E090
:1004500010E020900A0130900B013B862A8649E08B
:1004600050E0B301CE0101960E94BA058B816C81E8
:10047000681708F4682F70E080910C0190910D01CD
:100480000E94C3059B014091000150910101649FAE
:10049000C001659F900D749F900D112464E670E07B
:1004A0000E94C3058985A1E0B0E0882311F0A2E095
:1004B000B0E08D81829FA001839F500D11245D8744
:1004C0004C878E81829F1001839F300C11243F86C0
:1004D0002E868F81829FA001839F500D1124598BFE
:1004E000488B8885829F1001839F300C11243B8AA2
:1004F0002A8AFD01EE0FFF1FE45FFE4F812C912C35
:1005000054014A855B85415051095D8B4C8B8C8928
:100510009D89A817B90708F040C0880C991CAA1C2F
:10052000BB1C80819181AC012C843D84421953090C
:1005300057FF03C05195419551094617570770F46D
:10054000428153812E843F844219530957FF03C0CF
:1005500051954195510946175707E0F04889598947
:10056000841B950B97FF03C0919581959109861780
:100570009707C8F4828193812A883B88821993095E
:1005800097FF03C09195819591098617970758F4B5
:10059000689480F812963496BACF4A855B854830C5
:1005A000510508F053C00F5F1F4F59E0650E711CD5
:1005B0000D30110509F04DCF109293011092920168
:1005C00010920B0110920A0180910A0190910B0187
:1005D0008334910540F010920B0110920A011092A1
:1005E00093011092920180910A0190910B019C015C
:1005F0002F5F3F4F30930B0120930A01880F991F03
:10060000FC01E45FFE4F51824082C0929401D0927F
:100610009501E0929601F092970165960FB6F894D5
:10062000DEBF0FBECDBFDF91CF911F910F91FF9025
:10063000EF90DF90CF90BF90AF909F908F907F9082
:100640006F905F904F903F902F9008958092A301FC
:100650009092A401A092A501B092A6012C883D8899
:10066000369427943092A2012092A101309309017F
:100670002093080110930701009306019DCF1F925C
:100680000F920FB60F9211242F933F938F939F9346
:10069000AF93BF938091990190919A01A0919B0192
:1006A000B0919C013091980123E0230F2D3758F52C
:1006B0000196A11DB11D20939801809399019093FB
:1006C0009A01A0939B01B0939C0180919D01909110
:1006D0009E01A0919F01B091A0010196A11DB11DA5
:1006E00080939D0190939E01A0939F01B093A001E0
:1006F000BF91AF919F918F913F912F910F900FBE1E
:100700000F901F90189526E8230F0296A11DB11D8A
:10071000D2CF1F920F920FB60F9211242F933F93B7
:100720004F935F936F937F938F939F93AF93BF93F9
:10073000EF93FF93E0910401F09105010995FF917A
:10074000EF91BF91AF919F918F917F916F915F9149
:100750004F913F912F910F900FBE0F901F901895C2
:100760001F920F920FB60F9211242F933F934F9326
:100770005F936F937F938F939F93AF93BF93EF9309
:10078000FF93E0910201F09103010995FF91EF9130
:10079000BF91AF919F918F917F916F915F914F9199
:1007A0003F912F910F900FBE0F901F901895789446
:1007B00084B5826084BD84B5816084BD85B5826066
:1007C00085BD85B5816085BD80916E008160809317
:1007D0006E00109281008091810082608093810080
:1007E0008091810081608093810080918000816090
:1007F000809380008091B10084608093B1008091EB
:10080000B00081608093B00080917A008460809312
:100810007A0080917A00826080937A0080917A00D9
:10082000816080937A0080917A00806880937A005A
:100830001092C10084E090E09093B5018093B401E0
:1008400061E00E948301412C512C32014394222407
:100850002A94322C8091A901882329F061E08091AB
:10086000A7010E94830160E08091A7010E94150109
:1008700083E090E00197F1F761E08091A7010E9489
:10088000150183E290E00197F1F760E08091A70104
:100890000E9415018091A901882329F060E08091D0
:1008A000A7010E9483010E94B4016093AA01709382
:1008B000AB018093AC019093AD018091A8010E949F
:1008C000EC00892BD9F40E94B4010091AA01109187
:1008D000AB012091AC013091AD01601B710B820B1B
:1008E000930B0091AE011091AF012091B0013091B6
:1008F000B1010617170728073907F8F60E94B40157
:100900006093AA017093AB018093AC019093AD0109
:100910008091A8010E94EC00892BD9F00E94B401BB
:100920000091AA011091AB012091AC013091AD0171
:10093000601B710B820B930B0091AE011091AF0104
:100940002091B0013091B101061717072807390728
:10095000F8F60E94B4012091B4013091B5012F3F07
:100960003F4F09F491C00091AA011091AB01209171
:10097000AC013091AD01C091B201D091B301CF3F34
:10098000DC07A1F0C23070F4FE01FF27C13009F48A
:1009900047C0E898EE0FFF1FEE5FFE4F42EC50E0BD
:1009A000518340833092B3012092B201CB01801B6E
:1009B000910B68E370E00E94C3054B01B12CA12CA0
:1009C000F12CE12C8091B6019091B701E816F9065F
:1009D00074F507E110E0D301C201002E04C0880FB6
:1009E000991FAA1FBB1F0A94D2F788219921AA2117
:1009F000BB21892B8A2B8B2BA9F08091BE01909172
:100A0000BF010E9443010150110928F78091BA01EA
:100A10009091BB010E9443018FEFE81AF80AD2CFF0
:100A2000E998B8CF8091BC019091BD01EACF60E018
:100A30008091B4010E941501CF3FDC0729F1D093CA
:100A4000B301C093B2011092A3011092A4011092BD
:100A5000A5011092A6011092A2011092A1018C2F63
:100A6000C23090F4DD27CC0FDD1FCE5FDE4F29EDC5
:100A700031E039832883813099F1809169008C7F3E
:100A8000816080936900E89A0E94B4016B017C0147
:100A900084E6882E912CA12CB12C0E94B4016C19F3
:100AA0007D098E099F09683E734081059105A8F371
:100AB00031E0831A9108A108B10848EEC40E43E062
:100AC000D41EE11CF11C81149104A104B10429F786
:100AD00080E090E0892B09F4BDCE0E940000BACEE0
:100AE00080916900837F846080936900E99ACCCF0C
:100AF0000F931F93CF93DF93C7EAD1E08BE08883F6
:100B00008AE089831A8261E08BE00E94830160E0C1
:100B100089810E94830180E29EE4A0E0B0E08F839F
:100B20009887A987BA87C2EBD1E00FEF1FEF1B832D
:100B30000A838AE090E09D838C8349E050E068E678
:100B400070E088EB91E00E94BA05198308838CE37A
:100B500090E090930101809300011092A301109204
:100B6000A4011092A5011092A601DF91CF911F91CF
:100B70000F910895FB01DC0102C005900D924150D8
:100B80005040D8F70895AA1BBB1B51E107C0AA1F0C
:100B9000BB1FA617B70710F0A61BB70B881F991F1E
:100BA0005A95A9F780959095BC01CD010895EE0F57
:0E0BB000FF1F0590F491E02D0994F894FFCFFB
:060BBE003C00C200C20071
:00000001FF
