:100000000C9493000C9453050C942C050C94BB0099
:100010000C94BB000C94BB000C94BB000C94BB0074
:100020000C94BB000C94BB000C94BB000C94BB0064
:100030000C94BB000C94BB000C94BB000C94BB0054
:100040000C94E2040C94BB000C94BB000C94BB0019
:100050000C94BB000C94BB000C94BB000C94BB0034
:100060000C94BB000C94BB005E01011F0103030153
:10007000008A02010A010202010064001E47040B0B
:100080000906007C0101060103030100F401060ECC
:100090000102020100C201170101020201019600E2
:1000A000023E0106060100C800038207100310008B
:1000B000C800820710071003016D0112010301013E
:1000C00003010E012401010202010140012401018A
:1000D0000202010100000008000201000003040701
:1000E00000000000000000000000000025002800C3
:1000F0002B0000000000240027002A000404040450
:1001000004040404020202020202030303030303C1
:10011000010204081020408001020408102001029E
:1001200004081020BB0611241FBECFEFD8E0DEBFAD
:10013000CDBF11E0A0E0B1E0EAE4F2E102C0059039
:100140000D92AE32B107D9F721E0AEE2B1E001C0C5
:100150001D92AE3FB207E1F710E0C3E9D0E004C062
:100160002197FE010E941D09C239D107C9F70E94DB
:100170007A050C9423090C94000090E0FC01E05FE8
:10018000FE4F249184509F4FFC018491882399F065
:1001900090E0880F991FFC01EE50FF4FA591B4919C
:1001A000FC01E851FF4F859194918FB7F894EC9141
:1001B000E22BEC938FBF0895AF92BF92CF92DF9264
:1001C000EF92FF920F931F93CF93DF936C017B010C
:1001D0008B01040F151FEB015E01AE18BF08C0179D
:1001E000D10759F06991D601ED91FC910190F08110
:1001F000E02DC6010995892B79F7C501DF91CF91D3
:100200001F910F91FF90EF90DF90CF90BF90AF9034
:10021000089590E0FC01EC52FF4F2491FC01E05F57
:10022000FE4F3491FC01E450FF4FE491EE23C9F0FE
:10023000222339F0233001F1A8F4213019F12230C2
:1002400029F1F0E0EE0FFF1FE851FF4FA591B491A7
:100250008FB7F894EC91611126C030953E233C9302
:100260008FBF08952730A9F02830C9F0243049F70E
:10027000809180008F7D03C0809180008F77809374
:100280008000DFCF84B58F7784BDDBCF84B58F7DD1
:10029000FBCF8091B0008F778093B000D2CF809158
:1002A000B0008F7DF9CF3E2BDACF3FB7F894809125
:1002B000C5019091C601A091C701B091C80126B5B2
:1002C000A89B05C02F3F19F00196A11DB11D3FBF8E
:1002D000BA2FA92F982F8827BC01CD01620F711D5D
:1002E000811D911D42E0660F771F881F991F4A9557
:1002F000D1F708958F929F92AF92BF92CF92DF92E3
:10030000EF92FF920E9455014B015C0184E6C82EDA
:10031000D12CE12CF12C0E945501681979098A0928
:100320009B09683E734081059105A8F321E0C21A3C
:10033000D108E108F10888EE880E83E0981EA11C20
:10034000B11CC114D104E104F10429F7FF90EF902E
:10035000DF90CF90BF90AF909F908F9008950895B9
:10036000089590E080E008958F929F92AF92BF929F
:100370000F931F93CF93DF93CDB7DEB7A1970FB63F
:10038000F894DEBF0FBECDBF19A2423008F44AE098
:100390008E010F5D1F4F842E912CB12CA12CA50135
:1003A00094010E94FB08E62FB901CA01EA3044F526
:1003B000E05DD801EE938D01232B242B252B79F7BB
:1003C00090E080E0109769F0FD0101900020E9F7CE
:1003D0003197AF014A1B5B0BBD0186EE91E00E9495
:1003E000DC00A1960FB6F894DEBF0FBECDBFDF9143
:1003F000CF911F910F91BF90AF909F908F900895D4
:10040000E95CD7CFFC0101900020E9F73197AF01FB
:10041000481B590BBC0186EE91E00C94DC00CF9395
:10042000DF93EC0160E08E810E94090161E08E8122
:100430000E94090160E08E810E9409018BE891E031
:100440000197F1F7DF91CF910895CF92DF92EF926C
:10045000FF920F931F93CF93DF936C017C0187E092
:10046000E80EF11CD0E0C0E0062F10E0B8010C2E21
:1004700002C0759567950A94E2F76170F701819162
:100480007F010E9409012196C430D10579F7C60188
:10049000DF91CF911F910F91FF90EF90DF90CF9060
:1004A0000C940F02CF92DF92EF92FF920F931F9363
:1004B000CF93DF93EC01F62E642F8C810E9409010B
:1004C0008D818F3F19F060E00E9409010F2D10E02F
:1004D0008F8584FF25C06E0187E0C80ED11CF12CEA
:1004E000E12CB8010E2C02C0759567950A94E2F7CD
:1004F0006170F60181916F010E940901FFEFEF1A0F
:10050000FF0A88E0E816F10461F7CE01DF91CF9190
:100510001F910F91FF90EF90DF90CF900C940F02FE
:10052000B80184E0759567958A95E1F7CE010E9440
:1005300025026F2DCE01DF91CF911F910F91FF907A
:10054000EF90DF90CF900C94250240E0682F86EE6C
:1005500091E00C945202CF93DF93823029F4909172
:10056000F50198609093F5018093F9011092FA01DA
:1005700080E48093FB0180E18093FC0180E580931F
:10058000FD018091EA010E94BD008091EB018F3F47
:1005900011F00E94BD008091EC010E94BD00C6EEEA
:1005A000D1E09E01265E31408091F50184FD0AC0B4
:1005B00084E090E02196281739073CF48E810E9450
:1005C000BD00EFCF88E090E0F5CF8BE39DE0019791
:1005D000F1F760E08091EA010E94090160E08091FA
:1005E000EC010E9409018091EB018F3F19F060E05E
:1005F0000E9409018091F50184FD39C063E086EE17
:1006000091E00E942502CBE4D6E4CE010197F1F7F8
:1006100063E086EE91E00E9425022197F1F763E006
:1006200086EE91E00E94250283E592E00197F1F7C2
:1006300062E086EE91E00E9425028091F5018062E1
:100640000E94A50284E08093F6018CE00E94A5023E
:1006500081E00E94A5028BE39FE10197F1F782E020
:100660008093F70186E0DF91CF910C94A502806220
:100670000E94A5028BE496E40197F1F78091F501C1
:1006800080620E94A50283E592E00197F1F78091D4
:10069000F50180620E94A502D0CF41E00E94520283
:1006A00081E090E00895CF92DF92EF92FF926C018B
:1006B000990FEE08FF08F7FE16C041E06DE286EEE6
:1006C00091E00E94520266277727CB016C197D09C1
:1006D0008E099F094AE00E94B4010196FF90EF90B5
:1006E000DF90CF9008954AE0C701B601FF90EF90E8
:1006F000DF90CF900C94B4012F923F924F925F9273
:100700006F927F928F929F92AF92BF92CF92DF9221
:10071000EF92FF920F931F93CF93DF93CDB7DEB786
:1007200065970FB6F894DEBF0FBECDBF0E9455018E
:100730006B017C018091BC019091BD012601481A9A
:10074000590A4DEC441640E1540608F4E0C080918B
:10075000BA019091BB01009789F02091340130914A
:1007600035011201221A330A910137FE03C0319577
:1007700021953109283C31050CF0C5C001969093B4
:10078000BB018093BA01029709F0BDC098E6692EBB
:1007900090E0792E01E010E020903201309033019A
:1007A0003B862A8649E050E0B301CE0101960E94C3
:1007B0000D078B816C81681708F4682F70E08091B9
:1007C0003401909135010E94E7089B01409100019E
:1007D00050910101649FC001659F900D749F900D21
:1007E000112464E670E00E94E7088985A1E0B0E08A
:1007F000882311F0A2E0B0E08D81829FA001839F49
:10080000500D11245D874C878E81829F1001839F3C
:10081000300C11243F862E868F81829FA001839FFA
:10082000500D1124598B488B8885829F1001839F1E
:10083000300C11243B8A2A8AFD01EE0FFF1FEC5C6D
:10084000FE4F812C912C54014A855B854150510902
:100850005D8B4C8B8C899D89A817B90708F040C027
:10086000880C991CAA1CBB1C80819181AC012C8432
:100870003D844219530957FF03C0519541955109D1
:100880004617570770F4428153812E843F844219E2
:10089000530957FF03C05195419551094617570712
:1008A000E0F048895989841B950B97FF03C0919507
:1008B0008195910986179707C8F4828193812A88C8
:1008C0003B888219930997FF03C0919581959109FF
:1008D0008617970758F4689480F812963496BACF22
:1008E0004A855B854830510508F053C00F5F1F4FA4
:1008F00059E0650E711C0D30110509F04DCF1092B5
:10090000BB011092BA011092330110923201809112
:100910003201909133018334910540F010923301FC
:10092000109232011092BB011092BA0180913201F3
:10093000909133019C012F5F3F4F309333012093FF
:100940003201880F991FFC01EC5CFE4F51824082FE
:10095000C092BC01D092BD01E092BE01F092BF01F5
:1009600065960FB6F894DEBF0FBECDBFDF91CF9175
:100970001F910F91FF90EF90DF90CF90BF90AF90BD
:100980009F908F907F906F905F904F903F902F90AF
:1009900008958092CB019092CC01A092CD01B092AB
:1009A000CE012C883D88369427943092CA0120923B
:1009B000C901309331012093300110932F0100932E
:1009C0002E019DCF1F920F920FB60F9211242F93DD
:1009D0003F938F939F93AF93BF938091C101909169
:1009E000C201A091C301B091C4013091C00123E0C4
:1009F000230F2D3758F50196A11DB11D2093C0017D
:100A00008093C1019093C201A093C301B093C4012C
:100A10008091C5019091C601A091C701B091C80114
:100A20000196A11DB11D8093C5019093C601A093AD
:100A3000C701B093C801BF91AF919F918F913F9132
:100A40002F910F900FBE0F901F90189526E8230F3F
:100A50000296A11DB11DD2CF1F920F920FB60F9219
:100A600011242F933F934F935F936F937F938F93B3
:100A70009F93AF93BF93EF93FF93E0910401F091A5
:100A800005010995FF91EF91BF91AF919F918F91D2
:100A90007F916F915F914F913F912F910F900FBE7A
:100AA0000F901F9018951F920F920FB60F9211245E
:100AB0002F933F934F935F936F937F938F939F9366
:100AC000AF93BF93EF93FF93E0910201F091030185
:100AD0000995FF91EF91BF91AF919F918F917F9178
:100AE0006F915F914F913F912F910F900FBE0F909B
:100AF0001F901895789484B5826084BD84B5816018
:100B000084BD85B5826085BD85B5816085BD8091D8
:100B10006E00816080936E00109281008091810050
:100B20008260809381008091810081608093810048
:100B3000809180008160809380008091B10084600A
:100B40008093B1008091B00081608093B00080916B
:100B50007A00846080937A0080917A00826080932A
:100B60007A0080917A00816080937A0080917A0087
:100B7000806880937A001092C1001092D801109280
:100B8000D7011092CB011092CC011092CD0110929E
:100B9000CE011092CA011092C9018CE793E09093A4
:100BA000030180930201809169008C7F81608093B2
:100BB0006900E89A82E00E94AB028AE00E94BD00D0
:100BC0000CE010E08BE3E82E8FE1F82EC0E0D0E0DF
:100BD0008091CB019091CC01A091CD01B091CE013B
:100BE000892B8A2B8B2B09F49DC08091CB0190918E
:100BF000CC01A091CD01B091CE01B801681B790B59
:100C0000072E000C880B990B0E94C5074B015C0155
:100C10006091D5017091D601072E000C880B990BBD
:100C20000E94C5079B01AC01C501B4010E941B07CE
:100C300020E030E048EC52E40E947A082B013C01AD
:100C40004092D1015092D2016092D3017092D401AE
:100C500028EF31E342EE51E4C501B4010E947A0865
:100C60000E948D077093D0016093CF0120E030E0A7
:100C7000A901C301B2010E94160787FF08C01092A4
:100C8000D1011092D2011092D3011092D40181E0CF
:100C90000E94A502C7010197F1F7E1E08091F901F7
:100CA0008111E0E0E195F0E0EA51FE4F848980682F
:100CB0000E94A50282E191E00E9402026091D101AE
:100CC0007091D2018091D3019091D4010E948D073F
:100CD000CB010E9453038DE191E00E940202E0915A
:100CE000F901E23008F040C0E150F0E0EA51FE4F77
:100CF000848980680E94A5028FE191E00E9402022F
:100D00008091CF019091D0010E9453038AE291E03B
:100D10000E9402021092CB011092CC011092CD01E0
:100D20001092CE0120E030E042EB52E46091D1011C
:100D30007091D2018091D3019091D4010E947508E5
:100D40001816A4F461E08AE00E9409010E947A0169
:100D500060E08AE00E9409010E947A01209709F46C
:100D600037CF0E94000034CFE1E0BFCF60E08AE0DF
:100D70000E940901F3CFEF92FF920F931F93CF933D
:100D8000DF93E6EEF1E0138212828AE091E0918334
:100D9000808384E084838FEF858385E0868386E08B
:100DA000878387E0808788E0818789E08287138650
:100DB000148615861686178681E00E94AB02C7ED61
:100DC000D1E0EE24EA94FE2CFB82EA820AE010E0F5
:100DD0001D830C8349E050E068E670E08DED91E002
:100DE0000E940D07F982E8828CE390E09093010164
:100DF000809300011092CB011092CC011092CD0192
:100E00001092CE011093D6010093D501DF91CF91BE
:100E10001F910F91FF90EF900895FB01DC0102C03C
:100E200005900D9241505040D8F708950E94000857
:100E300008F481E008950E942F070C943B080E945B
:100E4000340858F00E942D0840F029F45F3F29F043
:100E50000C94240851110C946F080C942A080E94D9
:100E60004C0868F39923B1F3552391F3951B550B67
:100E7000BB27AA2762177307840738F09F5F5F4F6D
:100E8000220F331F441FAA1FA9F335D00E2E3AF0AC
:100E9000E0E832D091505040E695001CCAF72BD0C4
:100EA000FE2F29D0660F771F881FBB1F2617370715
:100EB0004807AB07B0E809F0BB0B802DBF01FF2747
:100EC00093585F4F3AF09E3F510578F00C942408F8
:100ED0000C946F085F3FE4F3983ED4F386957795C2
:100EE0006795B795F7959F5FC9F7880F911D969500
:100EF000879597F90895E1E0660F771F881FBB1F5C
:100F0000621773078407BA0720F0621B730B840B08
:100F1000BA0BEE1F88F7E09508950E949407689435
:100F2000B1110C946F0808950E94540888F09F57DF
:100F300098F0B92F9927B751B0F0E1F0660F771FFD
:100F4000881F991F1AF0BA95C9F714C0B13091F0F3
:100F50000E946E08B1E008950C946E08672F782FF8
:100F60008827B85F39F0B93FCCF3869577956795B8
:100F7000B395D9F73EF490958095709561957F4F24
:100F80008F4F9F4F0895E89409C097FB3EF49095CA
:100F90008095709561957F4F8F4F9F4F9923A9F052
:100FA000F92F96E9BB279395F695879577956795E1
:100FB000B795F111F8CFFAF4BB0F11F460FF1BC025
:100FC0006F5F7F4F8F4F9F4F16C0882311F096E9B8
:100FD00011C0772321F09EE8872F762F05C0662366
:100FE00071F096E8862F70E060E02AF09A95660F1F
:100FF000771F881FDAF7880F9695879597F90895D8
:10100000990F0008550FAA0BE0E8FEEF1616170619
:10101000E807F907C0F012161306E407F50798F081
:10102000621B730B840B950B39F40A2661F0232B9A
:10103000242B252B21F408950A2609F4A140A69516
:101040008FEF811D811D089597F99F6780E870E0FB
:1010500060E008959FEF80EC089500240A9416162E
:10106000170618060906089500240A941216130696
:10107000140605060895092E0394000C11F4882324
:1010800052F0BB0F40F4BF2B11F460FF04C06F5F40
:101090007F4F8F4F9F4F089557FD9058440F551F16
:1010A00059F05F3F71F04795880F97FB991F61F0EA
:1010B0009F3F79F087950895121613061406551F61
:1010C000F2CF4695F1DF08C0161617061806991FCD
:1010D000F1CF86957105610508940895E894BB27C2
:1010E00066277727CB0197F908950E94000808F436
:1010F0008FEF08950E948D080C943B080E942D08E4
:1011000038F00E94340820F0952311F00C94240844
:101110000C942A0811240C946F080E944C0870F358
:10112000959FC1F3950F50E0551F629FF001729F8C
:10113000BB27F00DB11D639FAA27F00DB11DAA1F9B
:10114000649F6627B00DA11D661F829F2227B00DE8
:10115000A11D621F739FB00DA11D621F839FA00D73
:10116000611D221F749F3327A00D611D231F849FC3
:10117000600D211D822F762F6A2F11249F5750401A
:101180009AF0F1F088234AF0EE0FFF1FBB1F661F95
:10119000771F881F91505040A9F79E3F510580F05E
:1011A0000C9424080C946F085F3FE4F3983ED4F34A
:1011B000869577956795B795F795E7959F5FC1F702
:1011C000FE2B880F911D9695879597F90895AA1B78
:1011D000BB1B51E107C0AA1FBB1FA617B70710F022
:1011E000A61BB70B881F991F5A95A9F78095909554
:1011F000BC01CD010895A1E21A2EAA1BBB1BFD0163
:101200000DC0AA1FBB1FEE1FFF1FA217B307E407E5
:10121000F50720F0A21BB30BE40BF50B661F771F3D
:10122000881F991F1A9469F760957095809590951D
:101230009B01AC01BD01CF010895EE0FFF1F05908A
:0A124000F491E02D0994F894FFCF1B
:10124A003C00AF01AF01000000004D03DC00B1011A
:10125A00B00157617465724C766C3A2000250057CC
:0E126A0061746572566F6C3A20006363000079
:00000001FF
